S00C00006374726C2E7372656363
S11300000C942A000C943C000C943C000C943C008E
S11300100C943C000C943C000C943C000C943C006C
S11300200C943C000C943C000C943C000C943C005C
S11300300C943C000C943C000C943C000C943C004C
S11300400C943C000C943C000C943C000C943C003C
S11300500C943C0011241FBECFE5D8E0DEBFCDBF19
S113006020E0A0E6B0E001C01D92A636B207E1F799
S11300700E94DB000C9460020C940000CF93C82F04
S113008041E060E08AE30E940B024C2F60E08BE3C6
S11300900E942802CF910895CF93C82F41E067E0D2
S11300A08AE30E940B024C2F67E08BE30E94280234
S11300B0CF9108950F931F93CF93DF938C010E94E8
S11300C04502E8010C5F1F4F0E9456028993C01736
S11300D0D107D1F7DF91CF911F910F9108950E941D
S11300E045020E9456020895CF93C82F0E944502EC
S11300F08C2F0E945102CF910895CF93DF931F92CA
S1130100CDB7DEB7198241E0BE016F5F7F4F84E057
S11301100E94DD0181E09981903109F480E00F9023
S1130120DF91CF91089544E0BC0180E00E948201F8
S11301302FEF84E39CE0215080409040E1F700C021
S1130140000060E184E00E94640108950F931F930E
S1130150CF93DF9300D000D0CDB7DEB78C0144E05D
S1130160BE016F5F7F4F80E00E94DD019981F8013D
S11301708081981314C0DE01129631960C5F1F4FD4
S11301809D91819198130DC0E017F107C9F78FE194
S11301909EE40197F1F700C0000081E003C080E015
S11301A001C080E00F900F900F900F90DF91CF91DE
S11301B01F910F9108950E946F0080936400823A0A
S11301C0C9F038F4803A09F440C0813A09F442C0D5
S11301D0F2CF893A19F0803BB1F0EDCF0E947D0057
S11301E0882321F084EB0E947400E5CF85EB0E9404
S11301F07400E1CF80E690E00E945A0080E690E02F
S11302000E949300D8CF80E690E00E945A0080E6D6
S113021090E00E94A600882331F01092650085EAE0
S11302200E947400C8CF809165008F5F8093650041
S1130230833039F481E090E00E944C0088EA0E9407
S1130240740086EA0E947400B6CF81E090E00E94B8
S11302503E00B1CF80E090E00E943E00ACCF84EC41
S113026086BF06B607FEFDCF83B1089584E886BF36
S113027006B607FEFDCF83B1089521B1287F30E093
S1130280482F50E081E02417350709F080E00895F5
S113029094EA96BF06B607FEFDCF0E943D0108957D
S11302A083B984E886BF06B607FEFDCF862F0E9479
S11302B03D01089583B984E886BF06B607FEFDCFE5
S11302C0862F0E943D010895CF93DF93D82FC62F28
S11302D088E00E944801882391F068E180EA0E9446
S11302E05001882361F068E28D2F0E945A0168E270
S11302F08C2F0E945A01882311F084E986BFDF9174
S1130300CF910895EF92FF920F931F93CF93DF93B2
S1130310C82F7B01142F88E00E9448018823F9F03C
S113032068E180EA0E9450018823C9F068E28C2FBA
S11303300E945A01112389F0E7011150012F10E0A6
S11303400F5F1F4F0E0D1F1D68E289910E945A0115
S1130350882319F0C017D107B9F784E986BFDF9164
S1130360CF911F910F91FF90EF900895FF920F93FB
S11303701F93CF93DF93F82E062F10E0015011093D
S11303801016110664F4C82FD92F0E942F018993E7
S11303902C2F2F1930E020173107BCF302C0C82FCF
S11303A0D92F0E943601888388E50E943D01DF91A0
S11303B0CF911F910F91FF9008950F931F93CF93A7
S11303C0DF93C82F8B01D42F88E00E944801882333
S11303D0E9F068E180EA0E9450018823B9F068E2FC
S11303E08C2F0E945A0180E10E944801882371F0F9
S11303F060E481EA0E945A01882341F06D2FC8010C
S11304000E94B601882311F084E986BFDF91CF9161
S11304101F910F910895E82FF0E0413059F42081A5
S113042081E090E002C0880F991F6A95E2F7822B61
S11304308083089541110BC0208181E090E002C0C7
S1130440880F991F6A95E2F7809582238083089527
S1130450E82FF0E0413059F4208181E090E002C0BF
S1130460880F991F6A95E2F7822B808308954111C2
S11304700BC0208181E090E002C0880F991F6A952B
S1130480E2F7809582238083089510BC83E389B9C1
S11304908AB188618AB980EA80BD80B5866080BDF2
S11304A008955D9BFECF50988CB908955F9BFECF55
S11304B08BB18C7119F48AB18CB108958FEF0895C2
S10704C0F894FFCFDA
S9030000FC
