:100000000C943E000C945B000C945B000C945B0021
:100010000C945B000C945B000C945B000C945B00F4
:100020000C945B000C945B000C945B000C945B00E4
:100030000C945B000C945B000C945B000C945B00D4
:100040000C945B000C945B000C945B000C945B00C4
:100050000C945B00B802C102CA029C020A03EE02C1
:10006000FF020A030A0397020A030A030A030A03A8
:100070000A030A03A4020A03D902E80211241FBEDC
:10008000CFE5D8E0DEBFCDBF11E0A0E6B0E0E0E410
:10009000F7E002C005900D92AC31B107D9F721E02D
:1000A000ACE1B1E001C01D92A632B207E1F70E94B7
:1000B0005D020C949E030C9400000E947D0389EA6B
:1000C0000E9489030E948E0391E0843B09F090E036
:1000D000892F08950F931F93CF93DF938C010E9474
:1000E0007D0380EB0E948903E8010C5F1F4F89911B
:1000F0000E948903C017D107D1F781E0DF91CF912A
:100100001F910F9108950F931F93CF93DF938C014D
:100110000E947D0382EA0E948903E8010C5F1F4F61
:1001200089910E948903C017D107D1F781E0DF913F
:10013000CF911F910F9108950E947D030E948E031D
:100140000895CF93C82F0E947D038C2F0E948903AE
:1001500081E0CF910895CF93DF93EC010E94D2010B
:1001600081E00E94BB0140E060E0CE010E941302EA
:10017000DF91CF9108950E94AB002FEF89E698E1BF
:10018000215080409040E1F700C0000008950E9497
:10019000D20181E00E94BB0140E060E080E790E096
:1001A0000E94130241E060E088E790E00E941302A1
:1001B00042E060E081E890E00E94130208950F930E
:1001C0001F93CF93DF93082F192F0E940C010E94D9
:1001D000D201C02FD12F16E00E94210188838823ED
:1001E000D9F342E0612F84E990E00E9413021F5F7F
:1001F00021961A3089F7DF91CF911F910F910895C1
:10020000CF93DF93EC010E942101888381538330D7
:10021000D0F7DF91CF91089560EF84E30E946603E9
:100220006FEF85E30E946A0308958095982F9F7071
:10023000969529F080E08F5F9695E9F7089580E024
:100240000895DF92EF92FF920F931F93CF93DF9366
:1002500085E30E947B0383E30E947B038C01C0E063
:10026000D0E0EE24E394F12CDC2E60EF85E30E94D5
:100270006E03B7010C2E02C0660F771F0A94E2F7D7
:100280006295607F85E30E94740389EF90E0019797
:10029000F1F700C00000F80190819F709F3031F0AD
:1002A000F80180818F708F30D9F706C02196C43055
:1002B000D105D1F680E012C0F3E0FD1570F0892F72
:1002C0000E94150124E0829FC0011124FC01ED0D64
:1002D000F11DE05AFF4F808101C080E0DF91CF9196
:1002E0001F910F91FF90EF90DF900895CF93C82F4B
:1002F00041E062E08AE30E942C034C2F62E08BE332
:100300000E944903CF910895CF93C82F41E061E047
:100310008AE30E942C034C2F61E08BE30E94490387
:10032000CF910895CF93C82F41E060E08AE30E9407
:100330002C034C2F60E08BE30E944903CF9108957A
:10034000682F88E30E946A03089580E00E9492016A
:1003500083EC99E00197F1F700C0000081E00E9472
:10036000920183EC99E00197F1F700C0000080E072
:100370000E9492010895CF93C82F80E00E948401CB
:1003800080E00E9476018C2F807F0E94A0010E9455
:10039000A5018C2F8295807F0E94A0010E94A5015B
:1003A000CF9108956FEF8AE30E9466036FEF87E3B2
:1003B0000E94660382E00E94BB0188E20E94BB01AA
:1003C0008CE00E94BB010895613051F028F062304A
:1003D00059F0633069F0089580580E94BB01089578
:1003E00080540E94BB0108958C560E94BB01089561
:1003F0008C520E94BB010895CF93C82F80E00E94C9
:10040000840181E00E9476018C2F807F0E94A001F0
:100410000E94A5018C2F8295807F0E94A0010E94DE
:10042000A501CF9108950F931F93CF938C01862F31
:10043000642F0E94E401F8018081882351F0C0E01C
:10044000CF5F0E94FC01F801EC0FF11D808181114A
:10045000F7CFCF911F910F91089582E291E00E9412
:10046000DF0082E291E00E946A00089582E291E05A
:100470000E949C00089582E291E00E94DF000895AE
:100480008EE191E00E94DF009091220180911E0197
:1004900098130FC0E3E2F1E0AFE1B1E026E231E012
:1004A00091918D91981307C0E217F307C9F781E086
:1004B000089580E0089580E008958F929F92AF9212
:1004C000BF92CF92DF92EF92FF920F931F93CF9341
:1004D000DF93C9EAD0E003EA0F2EF0EAEF2EF02D09
:1004E0000F2EF1EADF2EF02D0F2EF2EAFF2EF02D67
:1004F0000F2EF3EBBF2EF02D912C15EA0F2EF2EB01
:10050000AF2EF02D0F2EF6EA8F2EF02D0F2EF0EBE2
:10051000CF2EF02D4C2F50E0405A51094431510557
:1005200008F078C0FA01E65DFF4F0C9498030E9432
:100530005D00811175C072C086E990E00E94AB0039
:100540000E942D02CC2DE6CF0E94360280931C0122
:10055000853A21F4D11159C0C12FDCCF863A09F474
:1005600061C0883AB9F686EA90E00E94AB0065C0A7
:100570008E2D0E94A10083EB90E00E94BB00C12F52
:10058000C9CF8D2D0E94A10080EC90E00E94BB009D
:10059000C12FC0CF0E945D00811103C0DD2309F48B
:1005A00043C08DEC90E00E94AB000E943B02CA2D3C
:1005B000B1CF81EE90E00E94AB000E944002882300
:1005C000B1F182E291E00E948300D92DC12FA2CF28
:1005D00083EF90E00E94BB00CF2D9CCF0E94C7000C
:1005E0008DE191E00E94000180911D01813309F1AC
:1005F000823309F1833309F08DCFCF2D8BCF8AE081
:1006000091E00E94BB00C02F85CFCD2FD83A09F0D2
:1006100081CF13C0C83A09F081CF0FC0C02F7ACF65
:10062000CF2D78CFC82D76CFDC2FC02F73CFCB2D19
:1006300071CFCE2D6FCFCD2D6DCF80E090E0DF91CB
:10064000CF911F910F91FF90EF90DF90CF90BF90CF
:10065000AF909F908F900895E82FF0E0413059F4CB
:10066000208181E090E002C0880F991F6A95E2F72F
:10067000822B8083089541110BC0208181E090E09E
:1006800002C0880F991F6A95E2F7809582238083C4
:100690000895E82FF0E0413059F4208181E090E0A6
:1006A00002C0880F991F6A95E2F7822B8083089514
:1006B00041110BC0208181E090E002C0880F991F9A
:1006C0006A95E2F78095822380830895E82FF0E011
:1006D00060830895E82FF0E060830895E82FF0E04C
:1006E0008081682B60830895E82FF0E08081609519
:1006F00068236083089590E0089510BC83E389B96E
:100700008AB188618AB980EA80BD80B5866080BD83
:1007100008955D9BFECF50988CB908955F9BFECFE6
:100720008BB18C7119F48AB18CB108958FEF089553
:10073000EE0FFF1F0590F491E02D0994F894FFCF80
:100740003738392F3435362A3132332D63303D2B4B
:10075000312E204F70656E00322E20436C6F736512
:1007600000332E204368616E676520706173737774
:100770006F7264002A00456E746572207061737335
:10078000776F72643A0053797374656D204C6F63B0
:100790006B2E00446F6F72206F70656E65642E0063
:1007A000446F6F7220636C6F7365642E00456E74C6
:1007B0006572206E65772070617373776F72643A2B
:1007C00000436F6E6669726D2070617373776F722C
:1007D000643A0050617373776F7264206469646E69
:1007E0002774206D617463682E00496E76616C69B0
:0C07F000642070617373776F72642E00D8
:00000001FF
